:020000040800F2
:10000000101001204543000891AD000893AD000891
:10001000A5AD0008A9AD0008ADAD000800000000C6
:100020000000000000000000000000009D0100082A
:10003000B3AD000800000000F1010008610C0108E8
:100040005F4300085F4300085F4300085F43000808
:100050005F4300085F4300085F43000813B90008CE
:100060005F4300085F4300085F4300085F430008E8
:100070005F4300085F4300085F4300085F430008D8
:100080005F4300085F4300085F4300085F430008C8
:100090002BB100085F4300085F430008F7B8000871
:1000A0005F4300085F4300085F4300085F430008A8
:1000B0005F4300085F4300085F4300085F43000898
:1000C0005F4300085F4300085F4300085F43000888
:1000D0005F430008B9AD00085F43000853AE000855
:1000E0005F4300085F4300085F4300085F43000868
:1000F0005F4300085F4300085F4300085F43000858
:100100005F4300085F4300085F4300085F43000847
:10011000EFAE00085F430008F7B6000819B7000803
:100120005F4300085F4300085F4300085F43000827
:100130005F4300085F4300085F4300085F43000817
:100140005F4300081FB500085F4300085F430008D5
:100150005F4300085F4300085F4300085F430008F7
:100160005F4300085F4300085F4300085F430008E7
:100170005F4300085F4300085F4300085F430008D7
:100180005F4300085F430008DFF80CD011F0B8F9B6
:100190000048004705450008101001202A4B196847
:1001A0000868B0E8F04F80F30988BFF36F8F4FF015
:1001B000000080F3118870470000000006480068C6
:1001C000006880F3088862B661B6BFF34F8FBFF353
:1001D0006F8F00DF00BF00BF08ED00E0DFF80C000C
:1001E000016841F470010160704700BF88ED00E0D4
:1001F000EFF30980BFF36F8F134B1A681EF0100FD7
:1002000008BF20ED108A20E9F04F106008B44FF0CD
:10021000BF0080F31188BFF34F8FBFF36F8F0FF0D4
:10022000DAFF4FF0000080F3118808BC19680868F5
:10023000B0E8F04F1EF0100F08BFB0EC108A80F34A
:100240000988BFF36F8F704734610020EFF305809A
:100250007047000032490143324A1160704770B55F
:10026000002100230F22C4781CB32E4C246804F410
:10027000E064C4F5E064C4F30721C1F10404E3B20F
:100280000A4144789C40E1B28478144021430C0731
:10029000210E254C05786155047804F01F050124D2
:1002A000AC4005786D11AD0005F1E025C5F80041C1
:1002B00009E0047804F01F050124AC401B4D0678CA
:1002C000761145F8264070BD194A0A400243154B85
:1002D0001B1F1A60704739B1124A121D126802437F
:1002E000104B1B1D1A6006E00E4A121D1268824355
:1002F0000C4B1B1D1A607047042808D14FF0E021F9
:10030000096941F004014FF0E022116107E04FF06C
:10031000E021096921F004014FF0E02211617047EA
:100320000000FA050CED00E000E400E080E100E0F0
:1003300080FFFF1F10B50121080201F018FE002107
:100340004FF4807001F013FE10BD30B5024600205E
:1003500000235068F84C20400D790C6844EA0524CD
:10036000204350609068F54C2040D1E903542C4361
:100370008D682C434D7944EA450420439060D06A4F
:1003800020F470000C7D641EE4B2234340EA035065
:10039000D06230BD00210160017141718160C16096
:1003A00001610121017570470021E54A1168E54AA4
:1003B0001140D0E900231A4383681A43C3681A43E3
:1003C0001143E14AC2F80413704700210160416003
:1003D0008160C160704721B1826842F00102826091
:1003E00003E0826822F00102826070470A46002121
:1003F0004168D64B194011434160704741628262A7
:1004000070470A460021416821F01F0111434160F5
:10041000704738B1CA49096841F40001CA4AC2F8B4
:10042000041306E0C649096821F40001C64AC2F86F
:100430000413704738B1C249096841F48001C24AC7
:10044000C2F8041306E0BE49096821F48001BE4ADF
:10045000C2F804137047F0B504460D460020002191
:10046000092D11DDE068A5F10A0606EB460707260F
:1004700006FA07F18843A5F10A0606EB460603FAD9
:1004800006F10843E0600CE0206905EB450707260C
:1004900006FA07F1884305EB450603FA06F108431F
:1004A0002061072A0FDA606B561E06EB86071F26AF
:1004B00006FA07F18843561E06EB860605FA06F192
:1004C0000843606322E00D2A0FDA206BD61F06EB8B
:1004D00086071F2606FA07F18843D61F06EB860615
:1004E00005FA06F10843206310E0E06AA2F10D0668
:1004F00006EB86071F2606FA07F18843A2F10D06D0
:1005000006EB860605FA06F10843E062F0BD816855
:1005100041F0804181607047014600208A6802F006
:1005200080420AB1012000E00020704721B18268BA
:1005300042F48062826003E0826822F4806282601A
:10054000704721B1826842F00202826003E0826853
:1005500022F002028260704710B50A460021002393
:10056000416821F46041531E41EA4331416010BDAE
:1005700021B1426842F40062426003E0426822F422
:100580000062426070470146C86C80B270476C4898
:10059000001D0068704721B1826842F48072826059
:1005A00003E0826822F480728260704721B1826821
:1005B00042F40072826003E0826822F4007282607A
:1005C000704738B15E49096841F400515E4AC2F88B
:1005D000041306E05A49096821F400515A4AC2F846
:1005E00004137047F0B5044615460020002200268B
:1005F000092911DDE068A1F10A0707EB470C07277D
:1006000007FA0CF29043A1F10A0707EB470703FA38
:1006100007F21043E0600CE0206901EB410C072772
:1006200007FA0CF2904301EB410703FA07F210437B
:100630002061A06BC0F30156EF1C06F1010CA7EB83
:100640000C0707EB870C1F2707FA0CF29043EF1CEF
:1006500006F1010CA7EB0C0707EB870701FA07F27D
:100660001043A063F0BD10B50A4600210023816B42
:1006700021F44011531E41EA0351816310BD08B5B6
:10068000002300930090009B0B440093009B1A6092
:1006900008BD0A460021816821F470211143816060
:1006A00070470A460021816821F44011114381609E
:1006B0007047816841F480018160704701460020E5
:1006C0008A6802F480020AB1012000E0002070472D
:1006D00021B1426842F48062426003E0426822F441
:1006E00080624260704721B1426842F480524260A9
:1006F00003E0426822F480524260704708B5024627
:1007000000200090009201F12800009B1844009006
:100710000098006880B208BD10B50B460021D9B220
:10072000012404FA01F11AB144680C43446002E068
:1007300044688C43446010BDFFFEFFFCFDF7FFC022
:1007400004230140E030FCFF00200140FFFD3FFF9B
:100750000246002013680B400BB1012000E000208E
:100760007047CA430260704770B5024600200023FC
:1007700000240B12556801268E4005EA0604156810
:100780001D4015B10CB1012000E0002070BD002219
:100790000A12D3430360704710B50446FE488442F2
:1007A00009D10121480601F0D1FB00214FF0007072
:1007B00001F0CCFB08E00121880601F0C7FB002115
:1007C0004FF0806001F0C2FB10BD30B50246002042
:1007D0000023146824F002041460146844F0010437
:1007E000146000E05B1C546804F001041CB94FF66F
:1007F000FF74A342F6D1546804F001040CB9002040
:100800006CE08C79012C04D1146844F080041460ED
:1008100003E0146824F080041460CC79012C04D126
:10082000146844F04004146003E0146824F04004A9
:1008300014600C7A012C04D1146844F02004146074
:1008400003E0146824F0200414604C7A012C04D1D5
:10085000146844F01004146003E0146824F01004D9
:1008600014608C7A012C04D1146844F008041460DC
:1008700003E0146824F008041460CC7A012C04D13D
:10088000146844F00404146003E0146824F00404C1
:1008900014608C78A407CD7844EA05640D7944EAA5
:1008A00005444D7944EA05540D886D1E2C43D461EE
:1008B000146824F001041460002300E05B1C5468F9
:1008C00004F001041CB14FF6FF74A342F6D1546842
:1008D00004F001040CB1002000E0012030BD10B58F
:1008E0000021837A012202FA03F1AC4A126842F035
:1008F0000102AA4B1A60A94A1C3212688A43A74B0C
:100900001C331A60027BCAB9A44A0C3212688A43AB
:10091000A24B0C331A604288C38842EA03439F4AC1
:100920004032847A42F834300288838842EA0343B2
:100930009A4A4032847A02EBC4025360027B012A55
:1009400019D1964A0C3212680A43944B0C331A6040
:100950004288038842EA0343904A4032847A42F84C
:100960003430C288838842EA03438C4A4032847A16
:1009700002EBC4025360C27A3AB9884A121D126867
:100980008A43864B1B1D1A6006E0844A121D1268BA
:100990000A43824B1B1D1A60028932B97F4A143206
:1009A00012688A437D4B14331A600289012A06D1EA
:1009B0007A4A143212680A43784B14331A60427B25
:1009C000012A06D1754A1C3212680A43734B1C3344
:1009D0001A60724A126822F00102704B1A6010BD50
:1009E00000218171C171017241728172C172817085
:1009F000C170032101710221417101210180704701
:100A00006649096841F00101644A116011460968AC
:100A100043F60E729143614A11601146096841EA3A
:100A2000002111601146096821F001011160704731
:100A300021B1026842F48032026003E0026822F4CD
:100A4000803202607047E1B1026842F080020260C9
:100A50004FF4C272125842F480734FF4C2721350B2
:100A60004FF4CA72125842F480734FF4CA72135092
:100A70004FF4D272125842F480734FF4D272135072
:100A80001BE0026822F0800202604FF4C27212582A
:100A900022F480734FF4C27213504FF4CA7212588A
:100AA00022F480734FF4CA7213504FF4D27212586A
:100AB00022F480734FF4D2721350704710B502467F
:100AC0000020936803F08063B3F1806F00D110E0E1
:100AD000936803F00063B3F1006F01D1012008E0D7
:100AE000936803F08053B3F1805F01D1022000E0EE
:100AF0000420042879D002F5C07303EB00131B68AF
:100B000003F0010402F5C07303EB00131C600B7AC1
:100B10007BB94B7A0C8843EA445302F5C07404EB6A
:100B200000142468234302F5C07404EB001423600E
:100B300010E00B7A4C6843EAC4034C7A234302F575
:100B4000C07404EB00142468234302F5C07404EB62
:100B5000001423608B7A03F00F038B7202F5C073CD
:100B600003EB00135B6823F00F0402F5C07303EB83
:100B700000135C6002F5C07303EB00135B688C7AB2
:100B8000234302F5C07404EB001463608B7B1C06E6
:100B90004B7B44EA034403E00064004000660040ED
:100BA0000B7B44EA0323CC7A234302F5C07404EBA5
:100BB0000014A3608B7C1C064B7C44EA03440B7C32
:100BC00044EA0323CC7B234302F5C07404EB0014F6
:100BD000E36002F5C07303EB00131B6843F00104EC
:100BE00002F5C07303EB00131C6010BD10B5024684
:100BF000002321B1012907D002290FD109E0906813
:100C0000F94C00EA04030BE09068F84C00EA040396
:100C100006E09068F64C00EA040301E0002300BF00
:100C200000BFF44C181BA34216D007DC83B16FF051
:100C30008060184470B1022818D111E0B0F5007F2F
:100C400010D0ED4C204448B1B0F5003F0ED10BE080
:100C500002230DE000230BE0002309E0002307E05E
:100C6000012305E0012303E0012301E0002300BF8D
:100C700000BFD8B210BD21B1012907D002290FD180
:100C800009E0826842F0800282600AE0826842F4F1
:100C90000042826005E0826842F40002826000E067
:100CA00000BF00BF704710B500F5D87303EB011308
:100CB0001B6803F004031372137A53B900F5D87359
:100CC00003EB01131B6840F2FF7404EA53531360F3
:100CD00009E000F5D87303EB01131B686FF0604463
:100CE00004EAD303536000F5D87303EB01131B68C8
:100CF00003F00203537200F5D87303EB01135B6832
:100D000003F00F03937200F5D87303EB01135B68D4
:100D10001B0AD37400F5D87303EB01139B68D372DD
:100D200000F5D87303EB01139B681C0A147300F5DC
:100D3000D87303EB01139B681C0C547300F5D87334
:100D400003EB01139B681B0E937300F5D87303EB41
:100D50000113DB68D37300F5D87303EB0113DB6871
:100D60001C0A147400F5D87303EB0113DB681C0C28
:100D7000547400F5D87303EB0113DB681B0E9374F6
:100D800021B9C36843F02003C36003E0036943F063
:100D90002003036110BD21B9C26842F02002C26085
:100DA00003E0026942F0200202617047024600201F
:100DB00019B9D36803F0030006E0012903D11369D0
:100DC00003F0030000E00020704710B502460B4618
:100DD00000204FF6FF71BBB9146824F0020444F000
:100DE0000104146000E0491E546804F00304012C5F
:100DF00001D00029F7D1546804F00304012C01D07C
:100E0000002032E0012030E0012B13D1146824F0DF
:100E10000304146000E0491E546804F003040CB19C
:100E20000029F8D1546804F003040CB100201CE040
:100E300001201AE0022B17D1146824F0010444F0B9
:100E40000204146000E0491E546804F00304022CFC
:100E500001D00029F7D1546804F00304022C01D01A
:100E6000002002E0012000E0002010BD014600202B
:100E70000A6822F0010242F002020A604A6802F0A7
:100E80000302022A00D10120704701464FF6FF728B
:100E900000200B6823F002030B6000E0521E4B6839
:100EA00003F00203022B01D1002AF7D14B6803F0B3
:100EB0000203022B00D001207047014600208A69FE
:100EC00002F070007047014600208A69100E7047DA
:100ED000014600208A69C2F3074070471AB143698E
:100EE0000B43436102E043698B434361704710B594
:100EF0000246002001F4700343B19369C1F3130467
:100F000023400BB101202DE000202BE001F0807385
:100F100043B15368C1F3130423400BB1012021E016
:100F200000201FE001F0006343B19368C1F3130494
:100F300023400BB1012015E0002013E001F0007305
:100F400043B1D368C1F3130423400BB1012009E07E
:100F5000002007E01369C1F3130423400BB1012003
:100F600000E0002010BD0022244B994202D1002352
:100F7000836111E0C1F3130201F000730BB1C26091
:100F80000AE001F080630BB1026105E001F000634B
:100F90000BB1826000E0426070470246002002EA26
:100FA00001030BB1012000E00020704770B504463A
:100FB0000D46002660692840002872D0B5F5807F74
:100FC00069D01DDC082D42D006DC012D2DD0022D6C
:100FD00031D0042D7FD134E0102D3ED0202D42D0D1
:100FE000402D78D145E00000030000040003000814
:100FF00000000310000100080001FFF77000F0304E
:10100000B5F5004F61D009DCB5F5007F4AD0B5F5E4
:10101000806F4DD0B5F5006F5DD150E0B5F5803FE4
:101020002DD0B5F5003F56D12FE0A0685549FFF708
:10103000B4FF064651E0E0680321FFF7AEFF064625
:101040004BE0E0680821FFF7A8FF064645E0E068AE
:101050001021FFF7A2FF06463FE020690321FFF7BA
:101060009CFF064639E020690821FFF796FF0646F7
:1010700033E020691021FFF790FF06462DE06068FD
:101080000821FFF78AFF064627E060681021FFF776
:1010900084FF064621E0A0690121FFF77EFF064696
:1010A0001BE01BE0A0690221FFF777FF064614E072
:1010B000A0690421FFF771FF06460EE00BE0A0696E
:1010C0007021FFF76AFF064607E060680421FFF71A
:1010D00064FF064601E0002600BF00E0002630461F
:1010E00070BDB1F5007F3AD00FDC202928D006DC96
:1010F00001291CD004291DD0082940D11DE0402918
:1011000021D0B1F5807F3AD126E0B1F5004F31D042
:1011100006DCB1F5806F25D0B1F5006F2FD124E04A
:10112000B1F5803F12D0B1F5003F28D111E0154A4A
:10113000826025E00822C26022E01022C2601FE027
:10114000082202611CE01022026119E008224260BC
:1011500016E01022426013E00422426010E00422F4
:1011600042600DE0042242600AE000228261042213
:10117000426005E0002282610422426000E000BF7C
:1011800000BF704701010100016821F00101016009
:101190000021016041608160C160016121214161E4
:1011A000DB49884204D13D21D94A103A91608CE054
:1011B000D7491831884205D14FF47461D44A103AA6
:1011C000916082E0D2493031884205D14FF47411E8
:1011D000CF4A103A916078E0CD494831884205D134
:1011E0004FF07461CA4A103A91606EE0C8496031AC
:1011F000884204D1C749C64A103AD16065E0C44963
:101200007831884204D1C449C14A103AD1605CE0C7
:10121000BF499031884204D1C049BD4A103AD160DB
:1012200053E0BB49A831884205D14FF03D51B84A3F
:10123000103AD16049E0BA49884204D13D21B84A08
:10124000083A116041E0B6491831884205D14FF49F
:101250007461B34A083A116037E0B14930318842CD
:1012600005D14FF47411AE4A083A11602DE0AC4933
:101270004831884205D14FF07461A94A083A11609B
:1012800023E0A7496031884204D1A249A44A121F31
:1012900011601AE0A2497831884204D19E49A04ADF
:1012A000121F116011E09E499031884204D19B4980
:1012B0009B4A121F116008E09949A831884204D165
:1012C0004FF03D51964A121F1160704710B5002231
:1012D0000268944B1A40CC680B6823434C69234343
:1012E0008C692343CC6923430C6A23434C6A234310
:1012F0008C6A23434C6B23438C6B23431A43026059
:10130000426922F00702D1E90B3423431A434261B8
:101310000B6943604B6883608B68C36010BD00211C
:10132000016041608160C160016141618161C161B1
:10133000016241628162C1620163416381637047FE
:1013400021B1026842F00102026003E0026822F06B
:1013500001020260704721B1026842F4004202605B
:1013600003E0026822F400420260704721B1026883
:1013700042F02002026003E0026822F020020260D4
:101380007047416070470146486880B2704722B19B
:10139000036843F40023036003E0036823F400239D
:1013A00003600161704721B1026842F4802202604B
:1013B00003E0026822F48022026070470AB10161F2
:1013C00000E0C1607047014600200A6802F4002274
:1013D0000AB1012000E000207047014600200A68A1
:1013E00002F001020AB1012000E00020704701462E
:1013F00000204A6902F03800704730B503460A46BB
:1014000000200024464DAB4202D24149103901E090
:101410004349103902F000550DB14C6800E00C68EA
:10142000414D2C4004EA02050DB1012000E00020EE
:1014300030BD02463A4B9A4202D23548103801E09C
:101440003748103801F000531BB1374B0B40C360D5
:1014500002E0354B0B408360704710B501F080030C
:101460004BB122B1436943F08003436103E0436918
:1014700023F08003436180290BD02AB1036801F077
:101480001E042343036004E0036801F01E04A34329
:10149000036010BD70B50246002000240025204ED8
:1014A000B24202D21A4B103B01E01D4B103B1F4EC3
:1014B0000E4036B11E2606EAD124166806EA040557
:1014C00002E0566906F0800501F000560EB15C6836
:1014D00000E01C68144E344004EA010616B10DB158
:1014E000012000E0002070BD02460D4B9A4202D25E
:1014F0000748103801E00A48103801F000531BB1CA
:10150000094B0B40C36002E0074B0B408360704700
:10151000106002403D000020400F002000003D20F0
:10152000106402403F801CF07D0F7D0F3C0F3C0F8C
:10153000002041490860091D0860091D0860091D57
:1015400008603E483C4914310860704700213A4920
:101550008279002A3AD00A46126803689A430B46F9
:101560001A600A1D126803689A430B1D1A600279FB
:1015700011440A6803681A430A602F4A0832126845
:1015800003689A432C4B08331A601A1D12680368CB
:101590009A43294B0C331A604279102A0ED11A1F34
:1015A000126803681A43244B08331A601A1D126824
:1015B00003681A43204B0C331A600DE01E49427930
:1015C00011440A6803681A430A6005E0027911446D
:1015D0000A6803689A430A6070470021016001713C
:1015E0000C21417100218171704713491031096844
:1015F0000143114A103211607047014600200E4A23
:10160000143212680A400AB1012000E0002070473D
:10161000094914310860704701460020064A143217
:1016200012680A400AB1012000E000207047024918
:101630001431086070470000003C0140FFFF7F004C
:1016400010B504469848844208D10121084600F0AC
:101650004AFC0021012000F046FC76E093488442D9
:1016600008D10121022000F03EFC0021022000F000
:101670003AFC6AE08E48844208D10121042000F03F
:1016800032FC0021042000F02EFC5EE089488442F8
:1016900008D10121082000F026FC0021082000F0DC
:1016A00022FC52E08448844208D10121102000F03D
:1016B0001AFC0021102000F016FC46E07F4884420E
:1016C00008D10121202000F00EFC0021202000F094
:1016D0000AFC3AE07A48844208D10121402000F017
:1016E00002FC0021402000F0FEFB2EE07548844201
:1016F00008D10121802000F0F6FB0021802000F0BD
:10170000F2FB22E07048844208D10121801500F0EC
:10171000EAFB0021A01500F0E6FB16E06B488442CE
:1017200008D10121401500F0DEFB0021601500F01A
:10173000DAFB0AE06648844207D10121001500F077
:10174000D2FB0021201500F0CEFB10BDF0B50A46FB
:1017500000210023002400BF3DE0012505FA01F32C
:10176000156805EA03049C4234D105684F0003263E
:10177000BE40B543056015794E00B5400668354357
:1017800005601579012D02D01579022D16D18568D5
:101790004F000326BE40B543856055794E00B540E5
:1017A000866835438560456801268E40B5434560AF
:1017B000456896798E40B6B235434560C5684F009E
:1017C0000326BE40B543C560D5794E00B540C66816
:1017D0003543C560491C1029BFD3F0BD4FF6FF71DA
:1017E00001600021017141718171C171704708B5BB
:1017F0004FF480320092009A0A430092009AC2612C
:10180000C161009AC261C2690092C269009208BDBA
:101810000246002013690B400BB1012000E00020BC
:1018200070470146086980B270470246002053693C
:101830000B400BB1012000E00020704701464869D1
:1018400080B2704701837047418370470AB10183BA
:1018500000E0418370474161704742694A404261FC
:101860007047F0B5002300244D07ED0E02FA05F392
:10187000CE1000F1200555F826504E07F70E0F2622
:10188000BE40B543CF1000F1200646F82750CE10D9
:1018900000F1200555F8265045EA0304CE1000F16A
:1018A000200545F82640F0BD00000240000402403B
:1018B00000080240000C02400010024000140240E8
:1018C00000180240001C0240002002400024024098
:1018D000002802400E49086070470D494860704773
:1018E0000B49886070474AF6AA200949086070478A
:1018F0004CF6CC4006490860704701460020044A77
:10190000D2680A400AB1012000E0002070470000C0
:101910000030004010B50121080700F017FB00213E
:101920004FF0805000F012FB10BD4949086270472B
:1019300001460020474A106820F0E000084310608C
:1019400070474349086170474149A03108607047BA
:101950003F49A43108607047014600203D4A1068A5
:1019600020F44040084310607047394908647047CC
:1019700037494864704730B13649096841F440211D
:10198000344A116005E03349096821F44021314AA5
:10199000116070472E494862704710B5024600201A
:1019A0002C4B186840F6034398431043294B1860AA
:1019B000294B1B6843F00403274C2360012901D104
:1019C00030BF00E020BF244B1B6823F00403224CEF
:1019D000236010BD10B5024600201E4B186840F66B
:1019E0000343984310431B4B18601B4B1B6843F089
:1019F0000403194C2360012901D130BF00E020BF4E
:101A0000154B1B6823F00403134C236010BD1148D1
:101A1000006840F002000F4908600F48006840F07D
:101A200004000D49086000BF00BF30BF7047014689
:101A30000020084A52680A400AB1012000E0002054
:101A400070470449096841EA8001024A1160704701
:101A500000000E420070004010ED00E0F948006800
:101A600040F00100F74908600020F649083108609D
:101A7000F4480068F4490840F2490860F348091D39
:101A80000860F348EF4984310860F0481038091DB8
:101A90000860EC48006820F48020EA4908600020D3
:101AA000E8490C310860E7498C3108607047002133
:101AB000E44A921C117011460870704710B5014637
:101AC0000022002300204A11012A02D1DD4C2368A4
:101AD00008E0022A03D1DB4C7034236802E0D94CC1
:101AE0007434236801F01F02012494401C400CB19F
:101AF000012000E0002010BD38B500200090002437
:101B0000002500BF3120FFF7D9FF05460098401C93
:101B100000900098B0F5A04F01D0002DF2D03120F8
:101B2000FFF7CCFF08B1012400E00024204638BDB7
:101B300001460020C34A106820F0F80040EAC100C6
:101B400010607047C349086070470021BD4A703279
:101B500011701170012802D004280AD104E001217B
:101B6000B84A7032117005E00521B64A7032117022
:101B700000E000BF00BF7047B7490860704770B50C
:101B8000049C41EA82150126C6EB530645EA064548
:101B9000054345EA0465AB4E361D356070BDAD4961
:101BA00008667047820142EA0172A64B84331A60CC
:101BB0007047A8498866704710B5830143EA0163FE
:101BC00043EA02739F4C8834236010BDA149086723
:101BD0007047A049C864704702460020994B0833FB
:101BE000186820F0EC6042EA01031843954B083373
:101BF0001860704702460020924B0833186820F0A6
:101C0000784042EA010318438E4B0833186070474E
:101C1000014600208B4A0832106820F00300084378
:101C20001060704787480830006800F00C0070476B
:101C300001460020834A0832106820F0F000084373
:101C400010607047014600207E4A0832106820F478
:101C5000E05008431060704701460020794A08327E
:101C6000106820F4604040EAC10010607047F0B591
:101C7000002100220024022500260223714F08378C
:101C80003F6807F00C0121B1042905D0082937D19C
:101C900005E0724F076036E0714F076033E0694F2F
:101CA0003F1D3F68C7F38056664F3F1D3F6807F0F2
:101CB0003F036EB16A4FB7FBF3F7DFF888C10CF151
:101CC000040CDCF800C0CCF3881C07FB0CF40CE01F
:101CD000624FB7FBF3F7DFF86CC10CF1040CDCF8D2
:101CE00000C0CCF3881C07FB0CF4564F3F1D3F6827
:101CF000C7F301477F1C7D00B4FBF5F7076002E0E6
:101D0000564F076000BF00BF4E4F08373F6807F0CF
:101D1000F0010909534F7A5C0768D7404760494F83
:101D200008373F6807F4E051890A4E4F7A5C4768EC
:101D3000D7408760434F08373F6807F46041490B3D
:101D4000484F7A5C4768D740C760F0BD002100F477
:101D50004072B2F5407F0AD13A4A0832116821F444
:101D6000F811414A02401143364A08321160354A9F
:101D700070321268C0F30B031A43324B70331A608F
:101D80007047354944390860704733494039086025
:101D9000704736490860704701460020294A8C3256
:101DA000106820F44010084310607047014600207E
:101DB000244A8C32106820F44000084310607047B9
:101DC000014600201F4A8C32106820F01F004A1E76
:101DD00010431C4A8C321060704701460020194A9B
:101DE0008C32106820F4F8504A1E40EA0220154A4E
:101DF0008C321060704701460020124A8C32106805
:101E000020F440300843106070471949086070475B
:101E100039B10C4A3032126802430A4B30331A602F
:101E200006E0084A303212688243064B30331A60AB
:101E30007047F9B1034A343212680243014B34331C
:101E40001A601CE000380240FFFFF6EA1030002460
:101E50000030002000004742800E47420024F4007A
:101E600000366E0100600020FFFCFF0F5C0147425E
:101E7000E01147428F4A126882438E4B1A607047C6
:101E800039B18C4A121D126802438A4B1B1D1A601D
:101E900006E0884A121D12688243864B1B1D1A6099
:101EA000704739B1834A0C3212680243814B0C33BC
:101EB0001A6006E07F4A0C32126882437D4B0C3375
:101EC0001A60704739B17B4A103212680243794B6D
:101ED00010331A6006E0774A103212688243754B5D
:101EE00010331A60704739B1724A243A12680243BB
:101EF000704B243B1A6006E06E4A243A1268824313
:101F00006C4B243B1A60704739B16A4A203A126818
:101F10000243684B203B1A6006E0664A203A12688A
:101F20008243644B203B1A60704739B1614A1C3AC6
:101F3000126802435F4B1C3B1A6006E05D4A1C3A84
:101F4000126882435B4B1C3B1A60704739B1594A97
:101F5000143A12680243574B143B1A6006E0554A84
:101F6000143A12688243534B143B1A60704739B1DC
:101F7000504A103A126802434E4B103B1A6006E07A
:101F80004C4A103A126882434A4B103B1A60704721
:101F900039B1484A1C3212680243464B1C331A605E
:101FA00006E0444A1C3212688243424B1C331A60DA
:101FB000704739B13F4A2032126802433D4B20330B
:101FC0001A6006E03B4A203212688243394B2033C4
:101FD0001A60704739B1374A243212680243354BD0
:101FE00024331A6006E0334A243212688243314BAC
:101FF00024331A60704739B12E4A2C3212680243DA
:102000002C4B2C331A6006E02A4A2C321268824389
:10201000284B2C331A60704739B1264A3032126887
:102020000243244B30331A6006E0224A30321268F1
:102030008243204B30331A607047012808D11D4974
:102040003C31096841F008011A4A3C32116007E04E
:1020500018493C31096821F00801164A3C321160E8
:10206000704739B1134A273A12780243114B273B84
:102070001A7006E00F4A273A127882430D4B273B2D
:102080001A7070470B484030006840F08070094972
:1020900040310860704701460020064A283A12681D
:1020A0000A400AB1012000E00020704701492639AA
:1020B000087070473438024008B5002200920020B2
:1020C0000021CA22F74B1A6053221A60F54A183AC7
:1020D000126822F0A002F34B183B1A6000BFF14ACD
:1020E000183A126802F02001009A521C0092009ADD
:1020F000B2F5003F01D00029F1D0EA4A183A12683F
:1021000002F020020AB1012000E00020FF22E54B8E
:102110001A6008BD08B50022009200200021E14AA3
:10212000183A126802F04002E2B9421EDD4B183B39
:102130001A6000BFDB4A183A126802F04001009AA8
:10214000521C0092009AB2F5803F01D00029F1D0D4
:10215000D44A183A126802F040020AB1012002E0A3
:10216000002000E0012008BD38B5002000900024C8
:102170000025CA20CB49086053200860FFF7CAFF3A
:1021800000B952E00020C7492439086042F201102A
:10219000091D0860081D006800F00700091D08609F
:1021A00000BFC0481838006800F004040098401CC4
:1021B00000900098B0F5803F01D0002CF1D0B948D4
:1021C0001838006800F0040008B900252DE0B54873
:1021D0001C3800680020B3491C3908604FF6FF70B6
:1021E000B04910390860B048091F08600020AD49A7
:1021F0000C390860091D0860091D0860A9490831EB
:102200000860A84918310860A64920310860091DF6
:102210000860A44918390860A2491C310860FFF71A
:102220004BFF08B9002500E00125FF209D4908600B
:10223000284638BD9B481838006820F0800099492E
:1022400018390860704730B504460025CA20954902
:10225000086053200860FFF75DFF00B91DE091485A
:102260001C38006820F040008E491C390860084680
:102270000068216808438B491C3908608949143972
:10228000A068086008460068A18840EA01408549C6
:1022900014390860FFF7CEFF0125FF20814908604F
:1022A000284630BD002101607F214160FF2181600F
:1022B000704718B1FF217B4A116004E0CA21794AB6
:1022C000116053211160704730B504460025CA20C3
:1022D0007449086053200860FFF71CFF00B914E040
:1022E00044B170481C38006840F010006D491C393A
:1022F000086007E06B481C38006820F0100069494E
:102300001C390860FFF796FF0125FF20654908602A
:10231000284630BDCA21634A11605321116040B183
:1023200060491C39096841F020015E4A1C3A11607D
:1023300007E05C491C39096801F0DF01594A1C3A81
:102340001160FF21574A116070470146002204E0E6
:10235000501CC2B2A1F10A00C1B20A29F8DA100772
:1023600041EA10607047014600BF080900EB800099
:10237000420001F00F001044C0B270472DE9F04157
:1023800005460C460026002745B946481C3800681B
:1023900000F0400078B90020E0700CE041481C38A3
:1023A000006800F0400020B12078FFF7DCFF06460F
:1023B00001E00020E07055B120780004617840EA27
:1023C0000120A1780843E17840EA014611E0207835
:1023D000FFF7BBFF4FEA00486078FFF7B6FF48EA17
:1023E0000028A078FFF7B1FF48EA0008E07848EA43
:1023F0000046CA202B49086053200860FFF78AFE78
:1024000008B9002714E029483040264924390860DB
:10241000FFF710FF23481C38006800F0200030B997
:10242000FFF74AFE08B9002702E0012700E0012774
:10243000FF201C4908603846BDE8F0810021C170CA
:10244000017041708170704770B506460C460025DA
:10245000144824380068154900EA0105C5F3054011
:102460002070C5F30620607005F07F00A07005F4B1
:102470008000000CE0705EB92078FFF774FF2070D8
:102480006078FFF770FF6070A078FFF76CFFA070B6
:1024900070BD00200349091D0868024920390968F8
:1024A0007047000024280040FF007F007F7F7F00EE
:1024B0002DE9F04105460C46002600274DB960780D
:1024C00000F01000102804D1607820F010000A30CD
:1024D00060703DB16078FFF746FF0646A078FFF7D1
:1024E00042FF064655B1E0780004617840EA0120D9
:1024F000A1780843217840EA413611E0E078FFF7FF
:1025000024FF4FEA00486078FFF71FFF48EA0028E1
:10251000A078FFF71AFF48EA0008207848EA40361A
:10252000CA20FA49086053200860FFF7F3FD08B994
:10253000002714E0F6483040F44920390860FFF7DE
:1025400079FEF2481C38006800F0200030B9FFF72F
:10255000B3FD08B9002702E0012700E00127FF20B2
:10256000EA4908603846BDE8F081012101708170B8
:1025700041700021C170704770B506460C460025B9
:10258000E24820380068E24900EA0105280CE070C2
:10259000C5F30420607005F03F00A070C5F3423021
:1025A00020705EB9E078FFF7DEFEE0706078FFF73C
:1025B000DAFE6070A078FFF7D6FEA07070BD2DE93E
:1025C000F04105460E461446002745B9CF481C3851
:1025D000006800F0400008B90020E07017E0CB4828
:1025E0001C38006800F0400020B12078FFF7BBFEE7
:1025F000074601E00020E070A06820B9207BFFF7CB
:10260000B2FE074603E0207BFFF7ADFE074695B11B
:1026100020780004617840EA0120A1780843E1783D
:1026200040EA0140217B40EA0160A16808436168FB
:1026300040EA01071BE02078FFF787FE4FEA0048D9
:102640006078FFF782FE48EA0028A078FFF77DFE59
:1026500048EA0008E07848EA0048207BFFF775FE6A
:1026600048EA0060A1680843616840EA0107CA209F
:10267000A649086053200860B6F5807F03D1A348BF
:102680000838076002E0A148001F0760FF209F494B
:102690000860BDE8F0810021C17001704170817057
:1026A0008160012101730021416070472DE9F041F3
:1026B00006460F4614460025B7F5807F03D19348A0
:1026C0000838056802E09148001F0568C5F3054019
:1026D0002070C5F30620607005F07F00A07005F43F
:1026E0008000000CE070C5F30560207305F08040A9
:1026F000A06005F0803060607EB92078FFF733FE7F
:1027000020706078FFF72FFE6070A078FFF72BFE37
:10271000A070207BFFF727FE2073BDE8F08138B55D
:1027200002460024009400230020CA24774D2C6028
:1027300053242C6041B1754C1C3C24681443734DE8
:102740001C3D2C6001201EE0704C1C3C246894430E
:102750006E4D1C3D2C6000BF6C4C183C246804EA94
:102760001223009C641C0094009CB4F5803F01D0AF
:10277000002BF1D0654C183C246804EA12240CB9F3
:10278000002000E00120FF24604D2C6038BD30B5F2
:102790000023CA245D4D2C6053242C6041EA0203BF
:1027A000B0F5807F03D1594C2034236002E0574CB0
:1027B00024342360FF24554D2C6030BD0146002099
:1027C000B1F5807F05D1514A20321268C2F30E0064
:1027D00004E04E4A24321268C2F30E007047CA2148
:1027E0004A4A11605321116048491C39096821F097
:1027F0000701464A1C3A11601146096801431160FD
:10280000FF21424A11607047CA21404A116053219A
:1028100011603E4910390860FF21116070473B4844
:102820001038006880B2704718B501460023009345
:1028300000220020CA23354C23605323236049B172
:10284000324B1C3B1B6843F48063304C1C3C2360C0
:1028500001201FE02D4B1C3B1B6823F480632B4C95
:102860001C3C236000BF294B183B1B6803F004028B
:10287000009B5B1C0093009BB3F5803F01D0002AB6
:10288000F1D0224B183B1B6803F004030BB9002066
:1028900000E00120FF231D4C236018BDCA221B4B02
:1028A0001A6053221A60194A1C3A126822F48022D4
:1028B000164B1C3B1A601A46126840EA01031A4381
:1028C000124B1C3B1A60FF22104B1A6070470F48D6
:1028D0001C38006800F480207047CA220B4B1A6035
:1028E00053221A60094A1C3A126822F4E002074B8C
:1028F0001C3B1A601A46126840EA01031A43034B54
:102900001C3B1A60FF22014B1A60704724280040CC
:102910003FFFFF0070B504460D460026CA20F64969
:10292000086053200860FFF7F5FB00B907E044EAB0
:102930000500F1490C390860FFF77CFC0126FF20F7
:10294000ED490860304670BD30B504460025CA2008
:10295000E949086053200860FFF7DCFB00B914E088
:1029600044B1E5481C38006840F08000E2491C3959
:10297000086007E0E0481C38006820F08000DE496D
:102980001C390860FFF756FC0125FF20DA49086072
:10299000284630BDCA21D84A11605321116040B188
:1029A000D5491C39096841F40001D34A1C3A116029
:1029B00007E0D1491C39096821F40001CE4A1C3ACC
:1029C0001160FF21CC4A11607047CA21CA4A1160C8
:1029D00053211160C8491C39096821F40021C64AF5
:1029E0001C3A11601146096801431160FF21C24A77
:1029F0001160704770B5034600200024CA25BE4E02
:102A0000356053253560BC4D183D2D6805F4803583
:102A100055B100E0641CB84D183D2D6805F48035B3
:102A200015B1B4F5003FF5D1B34D183D2D6805F44F
:102A300080353DB943EA01051543AF4E1836356080
:102A4000012000E00020FF25AB4E356070BD10B5C1
:102A50000A460021A84B1C3B1B6840F6080423EAE9
:102A600004011AB140F40063194300E00143CA2392
:102A7000A14C2360532323609F4B1C3B1960FF2311
:102A8000236010BD2DE9F04180460C461546002616
:102A9000002799480C300068984900EA01069648DA
:102AA00010300068964900EA0107C6F3054020701F
:102AB000C6F30620607006F07F00A07006F4800068
:102AC000000CE0700020E870C7F30420687007F085
:102AD0003F00A870C7F342302870B8F1000F17D13B
:102AE0002078FFF740FC20706078FFF73CFC6070B6
:102AF000A078FFF738FCA0706878FFF734FC6870A6
:102B0000A878FFF730FCA8702878FFF72CFC287015
:102B1000BDE8F081784814300068704741B9764AC2
:102B20001C32126822EA4002734B1C331A6007E021
:102B3000714A1C32126842EA40026F4B1C331A6021
:102B4000704739B16C4A1C32126802436A4B1C331D
:102B50001A6006E0684A1C3212688243664B1C33D6
:102B60001A60704764491C31096821F4C051624AF7
:102B70001C321160114609680143116070475E49BB
:102B80001C31096821F4E0615B4A1C321160114676
:102B9000096801431160704757491C31096821F4E5
:102BA000C041554A1C321160114609680143116049
:102BB000704740B150491C31096841F080014E4ACC
:102BC0001C32116007E04C491C31096821F080017A
:102BD000494A1C321160704740B147491C310968AD
:102BE00021F40041444A1C32116007E042491C3183
:102BF000096841F40041404A1C321160704708B531
:102C0000002200923C4A2C320092009A02EB800291
:102C10000092009A116008BD08B50146002000909E
:102C200035482C300090009800EB8100009000980F
:102C3000006808BD30491C31096821F480312E4AF2
:102C40001C321160114609680143116070472A491E
:102C50001C31096821F40031274A1C3211601146E9
:102C6000096801431160704723491C31096821F448
:102C70008021214A1C32116011460968014311600C
:102C80007047F0B504460D4600270026CA201A49B1
:102C900008605320086018481838006800F00800E1
:102CA00050B100E0761C14481838006800F00800A5
:102CB00010B1B6F5805FF5D10F481838006800F004
:102CC000080098B90C481C38006800F0100058B98A
:102CD00045EA0400084908310860FFF7EDF908B932
:102CE000002704E0012702E0002700E00027FF2082
:102CF000014908603846F0BD242800407F7F7F00EE
:102D00003FFFFF00CA223D4B1A6053221A6091B167
:102D10003A4A1C3A126820F004031A43374B1C3B12
:102D20001A60364A1C32126800F004031A43334B0F
:102D30001C331A6011E0314A1C3A126820F0040377
:102D40009A432E4B1C3B1A602C4A1C32126800F02E
:102D500004039A43294B1C331A60FF22274B1A6045
:102D6000704710B5014600200022244B183B1B6819
:102D7000234C03EA040202EA01030BB1012000E044
:102D8000002010BD81B241F080011C4A183A12683F
:102D900002F0800262EA0101184A183A1160704795
:102DA00030B50146002000220023144C1C34246856
:102DB00004F00402114C1C3C24680C4002EAD1359A
:102DC00044EA05030D4C183C246804EA11121BB1B7
:102DD00094B20CB1012000E0002030BD00210109B7
:102DE0008AB242F08002054B183B1B6803F0800357
:102DF00063EA0202014B183B1A6070472428004026
:102E00007F3F010010B50446FB48844208D10121F0
:102E10008014FFF7ACF80021A014FFF7A8F83CE0FD
:102E2000F648844208D101210014FFF78FF80021F1
:102E30002014FFF78BF830E0F148844208D10121DB
:102E4000C013FFF783F80021E013FFF77FF824E0B9
:102E5000EC48844208D101214014FFF788F8002192
:102E60006014FFF784F818E0E748844209D1012193
:102E70000805FFF77CF800214FF48010FFF777F882
:102E80000BE0E248844208D101214805FFF76FF8C2
:102E900000214FF40010FFF76AF810BD10B50022B2
:102EA000028802F441520B884C8823438C882343C8
:102EB000CC8823430C8923434C8923438C892343A7
:102EC000CC8923431A430280838B4FF2FF74234043
:102ED00083830B8A038210BD2DE9F04F0025022366
:102EE00000244FF001090022002600279446904656
:102EF000B0F81CA04FF2400B0AEA0B0AA0F81CA085
:102F00004FF0020AA0F820A0858BD1F808A0BAF1F2
:102F1000020F01D100BF82E0B1F804A0BAF1000FA6
:102F200002D14FF0010901E04FF00209DFF8E0A201
:102F3000DAF800A00AF4000ABAF1000F09D0DFF8AD
:102F4000D0A2DAF800A02AF4000ADFF8C4B2CBF865
:102F500000A0DFF8BCA20AF17C0ADAF800A0CAF3EC
:102F6000881CDFF8ACA20AF17C0ADAF800A0CAF3E8
:102F70000278DFF89CA2AAF1040ADAF800A00AF0AD
:102F80003F07DFF88CA2AAF1040ADAF800A00AF4DD
:102F9000800ABAF5800F08D1DFF878A2BAFBF7FAF9
:102FA0000AFB0CFABAFBF8F607E0DFF86CA2BAFBF2
:102FB000F7FA0AFB0CFABAFBF8F6B1F806A0BAF574
:102FC000007F0ED14FEA162A0AEB8A0A4FEA4A0A14
:102FD000D1F808B0BAFBFBFA0AF1050A1FFA8AF227
:102FE0000FE04FEA491AB6FBFAFA0AEB8A0A4FEAEF
:102FF0004A0AD1F808B0BAFBFBFA0AF1050A1FFA2F
:103000008AF24FF00A0AB2FBFAF202F00104A2EBD4
:10301000040ACAF34F034FF6FF7A0AEA0424022B8C
:1030200001DBFF2B01DD02230024B1F806A04AEAF0
:10303000040A4AEA030AA0F820A0B1F804A0B1F8F3
:103040000CB04AEA0B0AB1F802B04AEA0B0AB1F82E
:1030500000B04AEA0B0A4AF4006A4AEA0505858389
:10306000BDE8F08F0021018041808180C180018115
:1030700041818181C1810721018270470021018046
:1030800041808180C180022181600021818170475F
:1030900021B1028842F04002028004E002884FF62B
:1030A000BF731A400280704721B1828B42F4806264
:1030B000828304E0828B4FF6FF331A40828370478D
:1030C00002884FF2FF731A40028002880A4302808E
:1030D0007047B1F5804F04D1028842F480420280EB
:1030E00004E002884BF6FF731A40028070474FF6E7
:1030F000FF62914204D0028842F48072028004E0B0
:1031000002884FF6FF631A400280704721B182881F
:1031100042F00402828004E082884FF6FB731A407A
:103120008280704721B1828842F01002828004E0E0
:1031300082884FF6EF731A408280704730B50022C4
:103140000023848B4FF240052C40848302240484A6
:10315000828B0C88B4F5007F01D00C8814B94FF431
:10316000807308E00C88B4F5407F03D00C88B4F578
:10317000807F00D100238C888D892C434D882C437F
:103180001C4344F400642243828330BD0146888995
:1031900070478181704721B1028842F40052028059
:1031A00004E002884DF6FF731A40028070470188E0
:1031B00041F480510180704702460020012901D06E
:1031C000108B00E0908A70470146088A70471AB158
:1031D00083880B43838002E083888B43838070471E
:1031E00030B5002400230C110125A540ABB2AAB1D3
:1031F00085881D43858014E0003001400038004080
:10320000003C0040003401400050014000540140A7
:103210000838024000366E010024F40085889D4382
:10322000858030BD0246002013890B400BB1012080
:1032300000E000207047CA4302817047F0B50246A3
:10324000002000240023002501F00F070126BE40C6
:10325000B4B20B1101269E40B3B2968806EA03056C
:103260001689264016B10DB1012000E00020F0BD06
:1032700010B5002201F00F040123A3409AB2D343FA
:10328000038110BD10B50446FE48844208D10121D7
:103290000846FEF76CFE00210120FEF768FE9DE067
:1032A000B4F1804F08D101210846FEF74FFE0021FE
:1032B0000120FEF74BFE91E0F348844208D1012142
:1032C0000220FEF743FE00210220FEF73FFE85E0CC
:1032D000EE48844208D101210420FEF737FE002188
:1032E0000420FEF733FE79E0E948844208D1012149
:1032F0000820FEF72BFE00210820FEF727FE6DE0D8
:10330000E448844208D101211020FEF71FFE00216D
:103310001020FEF71BFE61E0DF48844208D1012146
:103320002020FEF713FE00212020FEF70FFE55E0BF
:10333000DA48844208D101210220FEF718FE00215C
:103340000220FEF714FE49E0D548844209D101214C
:103350000804FEF70CFE00214FF48030FEF707FE54
:103360003CE0D048844209D101214804FEF7FFFD2A
:1033700000214FF40030FEF7FAFD2FE0CA488442E6
:1033800009D101218804FEF7F2FD00214FF48020CD
:10339000FEF7EDFD22E0C548844208D1012140201E
:1033A000FEF7D4FD00214020FEF7D0FD16E0C04816
:1033B000844208D101218020FEF7C8FD0021802031
:1033C000FEF7C4FD0AE0BB48844207D10121801505
:1033D000FEF7BCFD0021A015FEF7B8FD10BD0022D0
:1033E0000288A84B98420ED0AC4B98420BD0B0F15B
:1033F000804F08D0A44B984205D0A44B984202D0ED
:10340000A34B984204D14FF68F731A404B881A434E
:10341000A04B984207D0A04B984204D04FF6FF43F0
:103420001A400B891A4302804B68C3620B880385DC
:10343000944B984202D0994B984201D18B7A0386E3
:103440000123838270474FF0FF31416000210180EA
:1034500001814180817270470185828270470A46EE
:10346000002101884FF68F73194011430180704786
:1034700041627047C16270470146486A7047014621
:10348000088D704721B1028842F00202028004E0F8
:1034900002884FF6FD731A400280704721B10288FE
:1034A00042F00402028004E002884FF6FB731A40E7
:1034B0000280704721B1028842F08002028004E05D
:1034C00002884FF67F731A400280704702884FF6D9
:1034D000F7731A40028002880A430280704702880C
:1034E0004FF6FF431A40028002880A430280704769
:1034F00021B1028842F00102028004E002884FF606
:10350000FE731A400280704770B500240022002329
:10351000058C4FF6FE7635400584028C8388048B3B
:103520004FF68F752C40B51E2C400D882C43751E10
:103530002A408D892A434D882A43524DA84202D001
:10354000564DA84213D14FF6F7752A40CD892A432C
:103550004FF6FB752A408D882A434FF6FF652B40B6
:103560004FF6FF552B400D8A2B434D8A2B4383800A
:1035700004838D684563028470BD70B50024002209
:103580000023058C4FF6EF7635400584028C838846
:10359000048B48F6FF752C404FF6FF452C400D88F4
:1035A0004FF6FF7606EA05252C434FF6DF752A40D5
:1035B0008D8906EA05152A434D8806EA05152A4332
:1035C000304DA84202D0354DA8421DD14FF67F752F
:1035D0002A40CD894FF6FF7606EA05152A434FF6B5
:1035E000BF752A408D8806EA05152A434FF6FF3538
:1035F0002B404FF2FF752B400D8A06EA85052B43C1
:103600004D8A06EA85052B43838004838D68856394
:10361000028470BD70B5002400220023058C4FF693
:10362000FF6635400584028C8388848B4FF68F7546
:103630002C404FF6FC752C400D882C434FF6FF555F
:103640002A408D894FF6FF7606EA05252A434D88E4
:1036500006EA05252A430B4DA84202D00F4DA84289
:1036600038D14FF2FF752A40CD894FF6FF7606EA32
:1036700005252A434FF6FF352A408D8806EA0525A1
:103680002A4319E000000140000400400008004007
:10369000000C0040001000400014004000040140F5
:1036A0000040014000440140004801400018004033
:1036B000001C0040002000404EF6FF752B404DF6E8
:1036C000FF752B400D8A06EA05152B434D8A06EA45
:1036D00005152B43838084838D68C563028470BD88
:1036E00070B5002200230024058C4EF6FF7635408D
:1036F0000584038C8488828B48F6FF752A404FF638
:10370000FF452A400D884FF6FF7606EA05252A4335
:103710004DF6FF752B408D8906EA05352B434D8804
:1037200006EA05352B43FE4DA84202D0FD4DA842C6
:1037300008D14BF6FF752C400D8A4FF6FF7606EA4E
:1037400085152C43848082838D680564038470BD55
:10375000002101804180818081608181C18101825D
:103760004182704770B50346002000241846183087
:1037700001258D40ACB21D8CA5431D8409B10829DB
:103780000AD100EB610005684FF68F763540056081
:103790000568154305600FE00D1FC5F34E0528446D
:1037A000056848F6FF763540056005684FF6FF76F8
:1037B00006EA02263543056070BD416370478163A8
:1037C0007047C1637047016470470A460021018B4E
:1037D0004FF68F7319401143018370470A46002149
:1037E000018B48F6FF7319404FF6FF7303EA02237B
:1037F0001943018370470A460021818B4FF68F736E
:1038000019401143818370470A460021818B48F695
:10381000FF7319404FF6FF7303EA022319438183B4
:1038200070470A460021018B4FF6F7731940114388
:10383000018370470A460021018B4FF2FF73194044
:103840004FF6FF7303EA02231943018370470A46C8
:103850000021818B4FF6F773194011438183704724
:103860000A460021818B4FF2FF7319404FF6FF7318
:1038700003EA02231943818370470A460021018B22
:103880004FF6FB7319401143018370470A4600212C
:10389000018B4FF6FF3319404FF6FF7303EA022303
:1038A0001943018370470A460021818B4FF6FB7351
:1038B00019401143818370470A460021818B4FF6DE
:1038C000FF3319404FF6FF7303EA02231943818344
:1038D00070470A460021018B4FF67F731940114350
:1038E000018370470A460021018BC1F30E014FF698
:1038F000FF7303EA02231943018370470A4600213C
:10390000818B4FF67F7319401143818370470A46BC
:103910000021818BC1F30E014FF6FF7303EA0223EE
:103920001943818370470A460021018C4FF6FD73CD
:1039300019401143018470470A460021018C4FF65B
:10394000F77319401143018470470A460021018C26
:103950004FF6DF7319404FF6FF7303EA0213194362
:10396000018470470A460021018C4FF67F7319408D
:103970004FF6FF7303EA02131943018470470A46A6
:103980000021018C4FF6FF5319404FF6FF7303EAF5
:1039900002231943018470470A460021018C4FF22B
:1039A000FF7319404FF6FF7303EA022319430184A2
:1039B00070470A460021018C4DF6FF7319404FF6FF
:1039C000FF7303EA023319430184704730B50023C3
:1039D00001248C40A3B2048C9C430484048C02FA1E
:1039E00001F5ADB22C43048430BD30B5002304246E
:1039F0008C40A3B2048C9C430484048C02FA01F52D
:103A0000ADB22C43048430BD828B4FF2FF331A4099
:103A10008283828B4FF6FF7303EA01231A4382836A
:103A20007047F0B50C461546002100220026078C91
:103A30004EF6FF7C07EA0C070784818B028C4FF659
:103A4000FF7707EA043640F6FF4739404FF6FF7725
:103A500007EA052739434FF6FF7707EA033739436B
:103A600045F6FF773A4046F480573A438183028413
:103A7000F0BD828B4FF6F3731A408283828B0A4328
:103A800082837047F0B50C461546002100220026BF
:103A9000078C4FF6FF6C07EA0C070784818B028CBA
:103AA0004FF6FF7707EA04264FF60C7739404FF6BA
:103AB000FF7707EA03172F4339434FF2FF573A4086
:103AC00046F480773A4381830284F0BD028B4FF243
:103AD000FF331A400283028B4FF6FF7303EA012380
:103AE0001A4302837047F0B50C46154600210022A8
:103AF0000026078C4FF6EF7C07EA0C070784018B42
:103B0000028C4FF6FF7707EA041640F6FF4739406C
:103B10004FF6FF7707EA033739434FF6FF7703E0A5
:103B2000000001400004014007EA052739434FF631
:103B30005F773A4046F010073A4301830284F0BDB4
:103B4000028B4FF6F3731A400283028B0A430283FF
:103B50007047F0B50C46154600210022068C4FF642
:103B6000FE773E400684018B028C4FF60C76314086
:103B70007E1C06EA03162E4331434FF6F57632409B
:103B800044F00106324301830284F0BD70B505465E
:103B90000C46208850B92389A28861882846FFF7FF
:103BA000D8FFE1882846FFF7CBFF25E020880428CE
:103BB0000AD12389A28861882846FFF794FFE1880B
:103BC0002846FFF783FF17E0208808280AD12389B9
:103BD000A28861882846FFF755FFE1882846FFF74D
:103BE00048FF09E02389A28861882846FFF719FF6A
:103BF000E1882846FFF708FF70BD00210180418061
:103C0000012181800021C180018170472DE9F041AF
:103C100005460C4600260127608808B9022600E008
:103C20000026A088012801D1022700E00127208872
:103C3000A0B92389A28861882846FFF78AFFE18816
:103C40002846FFF77DFF23893A4631462846FFF78D
:103C50004AFFE1882846FFF739FF13E02389A2884D
:103C600061882846FFF73FFFE1882846FFF72EFFCF
:103C700023893A4631462846FFF76BFFE1882846FC
:103C8000FFF75EFFBDE8F0810146486B70470146D3
:103C9000886B70470146C86B70470146086C7047D7
:103CA0000A884B881A438B881A43CB881A430B899E
:103CB0001A434B891A438B891A43A0F84420704752
:103CC0000021018041808180C18001814181818109
:103CD000704731B1B0F8442042F40042A0F84420CB
:103CE00005E0B0F84420C2F30E02A0F8442070476B
:103CF00021B1828842F00402828004E082884FF67B
:103D0000FB731A408280704721B1828842F0010221
:103D1000828004E082884FF6FE731A4082807047EA
:103D20001AB183890B43838102E083898B438381AA
:103D300070478182704702460020138A0B400BB106
:103D4000012000E000207047CA430282704730B56E
:103D50000246002000230024158A05EA0103958904
:103D600005EA010413B10CB1012000E0002030BDD0
:103D7000CA430282704741EA0203A0F84830704704
:103D80001AB183890B43838102E083898B4383814A
:103D9000704721B1828842F00802828004E0828864
:103DA0004FF6F7731A408280704701894FF6F87218
:103DB0001140018170470A46002101894FF68F7337
:103DC000194011430181704730B504460D4629461C
:103DD0002046FFF7F0FF208940F00700208130BD2A
:103DE0002DE9F04104460D4616461F46602D06D1CA
:103DF0003B46012231462046FFF775FE05E03B4673
:103E0000012231462046FFF7A4FE29462046FFF74F
:103E1000D2FF208940F007002081BDE8F08130B555
:103E20000C4600210189C9B24FF6FF7505EA03254A
:103E3000154325432943018130BD2DE9F041054655
:103E40000E4617469846002443463A4631462846D1
:103E5000FFF7E5FF2C894FF6F870044044F00704A3
:103E60004FF68F70044044F070042C81BDE8F0815F
:103E7000F0B504460D4616461F463B4632462946D7
:103E80002046FFF7CCFF208940F480402081F0BD20
:103E900082884FF68F731A40828082880A4382801C
:103EA000704702894FF6F8731A40028102890A436B
:103EB0000281704702894FF67F731A40028102899E
:103EC0000A4302817047F0B50C4615461E46002194
:103ED000002200230189028B038C4FF6F8773940CA
:103EE00021434FF6FC473A4040F201173A434FF660
:103EF000DD773B404FF6FF7707EA06172F433B433A
:103F0000018102830384F0BD21B1828842F08002E6
:103F1000828004E082884FF67F731A408280704767
:103F2000A0F850107047000010B50446F7488442CE
:103F300008D101211020FEF71AF800211020FEF709
:103F400016F857E0F248844209D101214804FDF7F0
:103F5000FDFF00214FF40030FDF7F8FF4AE0ED4887
:103F6000844209D101218804FDF7F0FF00214FF4BC
:103F70008020FDF7EBFF3DE0E748844209D10121B5
:103F8000C804FDF7E3FF00214FF40020FDF7DEFF3A
:103F900030E0E248844209D101210805FDF7D6FF4F
:103FA00000214FF48010FDF7D1FF23E0DC4884426C
:103FB00008D101212020FDF7DAFF00212020FDF7A4
:103FC000D6FF17E0D748844209D101218807FDF7C1
:103FD000BDFF00214FF08040FDF7B8FF0AE0D24856
:103FE000844207D101214005FDF7B0FF00216005A3
:103FF000FDF7ACFF10BD2DE9FF4705460E46002436
:10400000A14600BFA0462C8A24F44054F088044303
:104010002C82AC8941F20C608443B088318908431A
:10402000718908430443AC81AC8A24F44074B0899C
:104030000443AC826846FDF71AFEB448854202D0BC
:10404000B748854202D1DDF80C9001E0DDF8089018
:10405000A88900F4004040B109EBC90000EB091049
:1040600031684900B0FBF1F707E009EBC90000EB4C
:10407000091031688900B0FBF1F76420B7FBF0F05C
:1040800004012009642101FB1078A88900F4004094
:1040900040B1322000EBC800B0FBF1F000F00700A7
:1040A000044308E0322000EB08106421B0FBF1F07B
:1040B00000F00F0004432C81BDE8FF874FF4165138
:1040C000016000218180C18001810C21418100219A
:1040D0008181704710B502460020108A20F470607C
:1040E0000B884C8823438C882343CC882343184374
:1040F000108210BD0021018041808180C180704705
:1041000021B1828942F40052828104E082894DF615
:10411000FF731A4082817047028B02F47F42028350
:10412000028B0A430283704721B1828942F4004224
:10413000828103E08289C2F30E028281704721B13D
:10414000828A42F40062828204E0828A4FF2FF7324
:104150001A4082827047C1F308028280704701468C
:104160008888C0F308007047028A4FF6F0731A403F
:104170000282028A0A430282704721B1828942F098
:104180000202828104E082894FF6FD731A40828127
:10419000704782894FF2FF731A40828182890A43F5
:1041A00082817047028A4FF6DF731A400282028AC8
:1041B0000A430282704721B1028A42F4804202829D
:1041C00004E0028A4BF6FF731A400282704781892D
:1041D00041F001018181704721B1828A42F00802D9
:1041E000828204E0828A4FF6F7731A408282704717
:1041F000028BD2B20283028B42EA01220283704711
:1042000021B1828A42F02002828204E0828A4FF643
:10421000DF731A408282704721B1828A42F0100215
:10422000828204E0828A4FF6EF731A4082827047DE
:10423000828A4FF6FB731A408282828A0A43828204
:10424000704721B1828A42F00202828204E0828AAF
:104250004FF6FD731A40828270471AB1838A0B436E
:10426000838202E0838A8B4383827047F0B50346E2
:1042700000240026002500201846C1F3421401F056
:104280001F06012707FA06F5012C01D10C3004E0C6
:10429000022C01D1103000E014301AB107682F430E
:1042A000076002E00768AF430760F0BD02460020E8
:1042B00013880B400BB1012000E000207047CA4377
:1042C0000280704770B502460B460024002100258D
:1042D0000020C3F3421503F01F01012606FA01F185
:1042E000012D02D19689314006E0022D02D1168AB5
:1042F000314001E0968A31401C12012606FA04F48E
:104300001688344091B18CB1012010E000100140BA
:104310000044004000480040004C00400050004075
:104320000014014000780040007C0040002070BD77
:1043300010B5002200230A1201249440A3B2DC43EA
:10434000048010BD0848804708480047FEE7FEE7A4
:10435000FEE7FEE7FEE7FEE7FEE7FEE7FEE7FEE735
:104360000348704703487047895B000889010008CB
:10437000DC2301081C24010810B502F0C5F904F083
:10438000C2FB04F0D9FB02F0B5FF07F0D5FF07F040
:10439000FDFE08F001F8A3480021016041600181A1
:1043A000A14801604160018110BD10B500209F4906
:1043B00008807920FDF782FB012805D19B48008801
:1043C00040F00100994908807A20FDF777FB012829
:1043D00005D19648008840F00200944908807B206F
:1043E000FDF76CFB012805D19048008840F00400DF
:1043F0008E4908807C20FDF761FB012805D18B48A0
:10440000008840F00800894908807D20FDF756FBB0
:10441000012805D18548008840F0100083490880B4
:104420007E20FDF74BFB012805D18048008840F035
:1044300020007E4908807F20FDF740FB012805D140
:104440007A48008840F0400078490880FDF71AFE5D
:104450000120FDF7F6FA10BD10B501F0C1FB00F028
:1044600072F900F0C7FEFFF7A0FF06F0FCFB012188
:104470006F4800F075FF00F0FAFB0120FDF764FAC9
:1044800010BD10B501F0ACFB00F05DF900F0B2FE1C
:104490000121674800F064FF00F0CBFC00F00BFC4A
:1044A00000F054FD00F0D3FD01F04DF800F070FB7A
:1044B0000120FDF749FA01F0A8FA10BD704710B5C8
:1044C00080200CF055FB044604B910BD59A001F042
:1044D0009DFC59A001F09AFC67A36AA26CA120463A
:1044E0000DF0DEF8204601F091FC53A001F08EFCA7
:1044F000704971A001F06DFC714972A001F069FC76
:1045000000BFE2E71FB5FFF7A7FFFFF7D7FFFFF7F1
:10451000B8FFFFF731FF01F0CAF805F04AFF45A0E8
:1045200001F074FC43A001F071FC68A001F06EFC86
:10453000FFF7C5FF00200323CDE9003002900346BA
:104540004FF4807265A1039067480BF03FFB002099
:104550000523CDE90030029003464FF4807263A139
:10456000039065480BF032FB00200223CDE90030B8
:10457000029003464FF4807260A1039060480BF0F4
:1045800025FB00200723CDE90030029003464FF4BD
:1045900080625CA103905E480BF018FB00200723AB
:1045A000CDE90030029003464FF4807259A1039088
:1045B0005B480BF00BFB00200623CDE90030029096
:1045C00003464FF4807257A1039059480BF0FEFA4E
:1045D00000200423CDE90030029003464FF480729E
:1045E00054A1039056480BF0F1FA0BF062FF00BFA4
:1045F000FEE700BFFEE700BFFEE770B505460E46CA
:104600002C4606E0323C32200BF026FD304600F00E
:10461000EAFF322CF6D820460BF01EFD304600F0A3
:10462000E2FF70BD906300209ADC00201060002043
:10463000906200200D0A00000D0A2A2A2A2A2A2A3E
:104640002A2A2A2A2A2A2A2A2A2A2A2A2A2A2A2ACA
:104650002A2A2A2A2A2A2A2A2A2A2A2A2A2A2A2ABA
:104660002A2A2A2A2A2A2A2A2A2A2A2A2A2A2A2AAA
:104670002A2A0D0A000000004A616E2033312032E0
:104680003031380031303A32313A353800000000EC
:10469000092020414441534C6561646572204D48B6
:1046A0003638304320202D20257320282573292CCF
:1046B00000000000030101184857207665720000D1
:1046C00003260118535720766572000073797374BE
:1046D000656D2073746172742E2E2E00666C61738A
:1046E00068207461736B0000477200087561727412
:1046F0002033353138000000299C00084D4500006A
:1047000081870008535049207761726E00000000D5
:1047100089C40008493243207461736B00000000B3
:1047200069C1000863616D657261207461736B001B
:1047300057C20008445652207461736B0000000099
:104740009F9D000870471CB501210846FDF760FBDE
:1047500001210220FDF75CFB01210420FDF758FB3D
:1047600001210820FDF754FB01211020FDF750FB2B
:10477000FFF7E8FF4FF48040009001208DF804001F
:1047800002208DF8050000208DF8060002208DF82B
:1047900007006946F948FCF7D9FF4FF48041F74814
:1047A000FDF752F83020009001208DF80400002021
:1047B0008DF805008DF8060001208DF80700694688
:1047C000EF48FCF7C3FF3021ED48FDF73BF88020B0
:1047D000009001208DF8040002208DF805000020D3
:1047E0008DF8060001208DF807006946E548FCF7C2
:1047F000ADFF8021E348FDF727F82020009001203D
:104800008DF8040000208DF805008DF806000220C8
:104810008DF807006946DB48FCF798FF2021D9484E
:10482000FDF712F80820009001208DF80400002008
:104830008DF805008DF8060002208DF80700694606
:10484000D048FCF783FF0821CE48FCF7FDFF01208C
:10485000009003208DF8040002208DF80500002050
:104860008DF807006946C748FCF770FF4FF4807069
:10487000009000208DF8040001208DF80500022032
:104880008DF807006946BF48FCF760FF10200090D4
:1048900001208DF804008DF8050000208DF8060039
:1048A00002208DF807006946B648FCF74FFF10213B
:1048B000B448FCF7C9FF4FF48070009001208DF8D8
:1048C00004008DF805008DF8060002208DF8070021
:1048D0006946AD48FCF73AFF4FF48071AA48FCF7EF
:1048E000B1FF4FF40070009001208DF804008DF8A6
:1048F00005008DF8060002208DF807006946A148E2
:10490000FCF724FF4FF400719E48FCF79BFF012049
:10491000009000208DF8040002208DF80500012091
:104920008DF8060002208DF8070069469648FCF7CE
:104930000DFF4020009001208DF8040000208DF82C
:10494000050001208DF806008DF8070069468D48A6
:10495000FCF7FCFE40218B48FCF776FF802000909E
:1049600001208DF8040000208DF8050001208DF84D
:1049700006008DF8070069468448FCF7E7FE8021B1
:104980008248FCF761FF4FF40050009001208DF841
:10499000040000208DF805008DF8060002208DF837
:1049A000070069467648FCF7D1FE4FF40051744881
:1049B000FCF74AFF4FF48040009001208DF804007E
:1049C00000208DF805008DF8060002208DF8070004
:1049D00069466B48FCF7BAFE4FF480416848FCF723
:1049E00033FF4FF40070009001208DF80400002088
:1049F0008DF8050001208DF806008DF80700694646
:104A00005E48FCF7A3FE4FF400715C48FCF71AFF08
:104A10004FF48070009069465848FCF797FE4FF4B9
:104A200080715648FCF70EFF4FF4006000900120A3
:104A30008DF8040000208DF8050001208DF8060097
:104A40008DF8070069465148FCF780FE4FF400617D
:104A50004E48FCF7F7FE4FF48050009069464B48F3
:104A6000FCF774FE4FF480514848FCF7EBFE4FF41E
:104A70008070009001208DF804008DF805008DF8FD
:104A8000060002208DF8070069463D48FCF75EFEEF
:104A90004FF480713A48FCF7D5FE4FF40070009057
:104AA00001208DF804008DF805008DF80600022025
:104AB0008DF8070069463248FCF748FE4FF4007154
:104AC0002F48FCF7BFFE0220009001208DF8040063
:104AD00000208DF805008DF8060001208DF80700F4
:104AE00069462748FCF732FE1CBD1CB5012108466B
:104AF000FDF78EF901210220FDF78AF9012104203A
:104B0000FDF786F94FF48040009000208DF80400F6
:104B100002208DF805008DF8070069461748FCF75C
:104B200015FE4FF480411548FCF78EFE30200090B2
:104B300000208DF804008DF8050001208DF8070095
:104B400069460F48FCF702FE1CBD002107E0002269
:104B500000E0521C48F2A4339A42FAD3491C814225
:104B6000F5D37047002105E0002200E0521C282AFE
:104B7000FCD3491C8142F7D3704700000004024077
:104B8000000C0240000802400000024000100240F9
:104B900008B54FF44070FBF75DFB37208DF800003F
:104BA00001208DF8010000208DF8020001208DF811
:104BB00003006846FBF753FB14208DF800000F201C
:104BC0008DF8010000208DF8020001208DF803000F
:104BD0006846FBF744FB41208DF800000E208DF85D
:104BE000010000208DF8020001208DF803006846C6
:104BF000FBF735FB27208DF800000C208DF8010015
:104C000000208DF8020001208DF803006846FBF7B4
:104C100026FB36208DF800000B208DF801000020C7
:104C20008DF8020001208DF803006846FBF717FBA2
:104C300034208DF800000D208DF8010000208DF843
:104C4000020001208DF803006846FBF708FB1720DF
:104C50008DF800000C208DF8010000208DF8020076
:104C600001208DF803006846FBF7F9FA08BD08B586
:104C70004FF44070FBF7EEFA14208DF800000F207F
:104C80008DF8010000208DF8020001208DF803004E
:104C90006846FBF7E4FA41208DF800000E208DF8FD
:104CA000010000208DF8020001208DF80300684605
:104CB000FBF7D5FA08BD00B595B001218804FDF7D2
:104CC000F0F801210220FDF7A3F801214805FDF7C6
:104CD0009FF8FE48FCF758FA4FF00060069000205D
:104CE00011901290FA4807900020089040200990F7
:104CF0004FF496600A9000200B904FF480600C9067
:104D000000200D9014900E900F904FF400301090F2
:104D100006A9EE48FCF7DAFAEC483038FCF734FA2A
:104D20004FF000600690002011901290E848079024
:104D30000020089009904FF410500A9000200B902A
:104D40004FF480600C9000200D9014900E904FF462
:104D500080700F904FF44030109006A9DB48303837
:104D6000FCF7B4FADA48001FFFF7DEF807220A2141
:104D7000D848FCF776FD07220B21D648FCF771FDD9
:104D80004FF48060009002208DF804008DF805003B
:104D900000208DF8060001208DF807006946CD48F7
:104DA000FCF7D4FC4FF40060009002208DF8040062
:104DB0008DF8050000208DF8060001208DF8070011
:104DC0006946C448FCF7C2FC0121C148001FFFF737
:104DD000ABF94FF4612002900020ADF80C00ADF863
:104DE0000E00ADF81000ADF814000C20ADF8120064
:104DF00002A9B748001FFFF7FEF8002240F2266123
:104E0000B348001FFFF732FA002240F22551B048A4
:104E1000001FFFF72BFA012240F22441AC48001F8B
:104E2000FFF724FA0121AA48001FFFF769F915B01E
:104E300000BD00B595B001210846FCF7E9FF01214E
:104E40001020FDF73FF801218805FCF7E1FF4FF442
:104E500096600A9000201190129013900E904FF4DB
:104E600080600C9000200F909B48079000201490C9
:104E70000D900B904FF4003010908002069040206F
:104E80000990C005089006A99448FCF71FFA07226C
:104E90000A219348FCF7E5FC072209219048FCF71A
:104EA000E0FC4FF40070009002208DF80400012017
:104EB0008DF8050000208DF8060001208DF8070010
:104EC00069468748FCF742FC4FF480600090002060
:104ED0008DF8040001208DF8050069468048FCF734
:104EE00035FC01217C48001FFFF71EF94FF4E1203B
:104EF00002900020ADF80C00ADF80E00ADF81000E7
:104F0000ADF814000820ADF8120002A97248001F85
:104F1000FFF771F801217048001FFFF7F1F8002238
:104F200040F226616C48001FFFF7A0F9002240F212
:104F300025516948001FFFF799F9002240F22441EA
:104F40006548001FFFF792F915B000BD00B595B098
:104F500001210846FCF75CFF01214804FCF7A1FF92
:104F600001214805FCF754FF072202215C48FCF7A9
:104F700078FC072203215A48FCF773FC04200090B8
:104F800002208DF804008DF8050000208DF8060041
:104F900001208DF8070069465148FCF7D7FB08202F
:104FA000009002208DF804008DF8050000208DF897
:104FB000060001208DF8070069464948FCF7C6FB4A
:104FC00042484830FCF7E0F84FF0006006900020BF
:104FD00011901290434807900020089040200990BB
:104FE00000200A900B904FF480600C9000200D90F0
:104FF00014900E900F904FF40030109006A9334893
:105000004830FCF763F900213448FCF799F9012195
:105010003448001FFFF788F84FF416500290002024
:10502000ADF80C00ADF80E00ADF81000ADF81400AE
:105030000820ADF8120002A92A48001FFEF7DBFF86
:1050400001212848001FFFF75BF815B000BD00B52F
:1050500095B00121C804FCF724FF01210420FCF7CE
:10506000D7FE01214805FCF7D3FE18481830FCF79D
:105070008BF84FF0006006900020119012901A48B3
:1050800007904FF040500890402009904FF49660F0
:105090000A9000200B904FF480600C9000200D903F
:1050A00014900E900F904FF40030109006A907480E
:1050B0001830FCF70BF905481838FCF765F84FF085
:1050C000006006900020119012900FE0586002409E
:1050D000044800400004024004100140B86402404B
:1050E0000000024004440040044C0040FE48079089
:1050F0004FF040500890002009904FF410500A9053
:1051000000200B904FF480600C9000200D901490C4
:105110000E904FF480700F904FF44030109006A91D
:10512000F248FCF7D3F8F048001FFEF7FDFE082216
:105130000A21EF48FCF795FB08220B21EC48FCF70D
:1051400090FB4FF48060009002208DF804008DF8F1
:10515000050000208DF8060001208DF80700694643
:10516000E348FCF7F3FA4FF40060009002208DF85A
:1051700004008DF8050000208DF8060001208DF850
:1051800007006946DA48FCF7E1FA0121D648001F1A
:10519000FEF7CAFF4FF4165002900020ADF80C0045
:1051A000ADF80E00ADF81000ADF814000C20ADF80D
:1051B000120002A9CC48001FFEF71DFF002240F29A
:1051C0002661C948001FFFF751F8002240F225511F
:1051D000C548001FFFF74AF8012240F22441C248A7
:1051E000001FFFF743F80121BF48001FFEF788FFAB
:1051F00015B000BD00B589B001210846FCF708FED6
:1052000009220B21BB48FCF72CFB09220C21B948D1
:10521000FCF727FB4FF40060079002208DF8200078
:105220008DF8210000208DF8220001208DF8230048
:1052300007A9B048FCF78AFA4FF480500790022083
:105240008DF820008DF8210000208DF8220001202B
:105250008DF8230007A9A748FCF778FA0121480632
:10526000FCF71FFEA448FBF797FA04A8FBF7B8FB6E
:1052700000208DF816008DF817008DF818008DF8B5
:1052800019008DF81A0001208DF81B0000208DF800
:1052900012008DF8130006208DF8140005208DF8FB
:1052A00015000620ADF8100004208DF80A0000203B
:1052B0008DF80B0001208DF80C000020ADF80000E7
:1052C000ADF80200ADF80400ADF80600ADF8080036
:1052D00001208DF80D006846FBF701FB04A9864804
:1052E000FBF773FA012248F20E018348FBF7F6FD43
:1052F00009B000BD70B504460E461546B5F5006F01
:1053000018DAA6720120E07220734FF6FF7000EAEF
:1053100045102080002060804FF6FF7000EA4510A5
:10532000A0800020E0800120208160732046FBF7F0
:10533000D6FA14E0A6720120E0722073C5F34F3054
:105340002080042000EBC50060804FF6FF70A08035
:10535000E0800120208160732046FBF7C0FA70BD19
:1053600030B589B004460D4601210220FCF750FDFE
:1053700009220C216148FCF774FA09220D215F48CB
:10538000FCF76FFA4FF48050079002208DF8200050
:105390008DF8210000208DF8220001208DF82300D7
:1053A00007A95648FCF7D2F94FF4005007900220A5
:1053B0008DF820008DF8210000208DF822000120BA
:1053C0008DF8230007A94D48FCF7C0F90121880694
:1053D000FCF767FD4A48FBF7DFF904A8FBF700FB81
:1053E00000208DF816008DF817008DF818008DF844
:1053F00019008DF81A0001208DF81B0000208DF88F
:1054000012008DF8130006208DF8140005208DF889
:105410001500B4F914007D281DD008DC0A282AD014
:10542000142824D032281ED0642829D117E0FA2865
:105430000DD0B0F5FA7F06D0B0F57A7F20D10320E9
:10544000ADF810001EE00620ADF810001AE00C20A8
:10545000ADF8100016E01820ADF8100012E01E2084
:10546000ADF810000EE03C20ADF810000AE09620E8
:10547000ADF8100006E04FF49670ADF8100001E0B2
:1054800009B030BD00BF10216846D4F8B020FFF746
:1054900031FF4FF45E7219216846FFF72BFF8DBB79
:1054A00074340E216846E26FFFF724FF54F8242C71
:1054B0000F216846FFF71EFF11216846626CFFF757
:1054C00019FF54F8342C12216846FFF713FF54F8E3
:1054D000442C13216846FFF70DFF14216846E26C47
:1054E000FFF708FF15210EE0044C00404060024029
:1054F0000008024000000240006400400004024036
:105500000068004013E06846626DFFF7F3FE162165
:105510006846E26DFFF7EEFE17216846626EFFF700
:10552000E9FEE26E743C18216846FFF7E3FE04A929
:10553000FE48FBF74AF9012248F67001FB48FBF7E9
:10554000CDFC00BF9CE70EB5F948FDF79BFE01219D
:105550001020FCF7A6FC40F2E730019040F2CF208B
:10556000ADF800000020ADF80800ADF802008DF89D
:105570000A006946EE48FDF732FF0121EC48FEF7CC
:10558000E3FB01221146EA48FEF7CAFB0021E84886
:10559000FDF7AEFF0EBD0EB5E648FDF773FE012127
:1055A0002020FCF77EFC41F28730019040F28F60B2
:1055B000ADF800000020ADF80800ADF802008DF84D
:1055C0000A006946DB48FDF70AFF0121D948FEF7CA
:1055D000BBFB01221146D748FEF7A2FB0121D548AB
:1055E000FDF786FF0EBD112803D17E21D24A11603E
:1055F00006E001218140D04A12681143CE4A116071
:1056000070471CB54FF48040009001208DF80400D5
:1056100002208DF805006946C848FCF797F84FF45A
:105620008041C648FCF710F9C5A000F0EFFB1CBD97
:105630001CB54FF48040009001208DF8040002203A
:105640008DF805006946BD48FCF780F84FF48041AD
:10565000BA48FCF7F7F8BEA000F0D8FB1CBD1CB59B
:105660004FF48040009001208DF8040002208DF856
:1056700005006946B148FCF769F84FF48041AF482E
:10568000FCF7E2F81CBD1CB54FF4804000900120EF
:105690008DF8040002208DF805006946A748FCF744
:1056A00055F84FF48041A548FCF7CCF81CBD10B567
:1056B0002021AB48FCF7C6F84FF40051A948FCF78D
:1056C000C1F80520FFF741FA0821A548FCF7BAF810
:1056D0000520FFF73AFA1021A148FCF7B3F805209E
:1056E000FFF733FA4FF480419448FCF7ABF864209D
:1056F000FFF72BFA80219C48FCF7A4F8402198483A
:10570000FCF7A0F8FCF7EFF810BD10B5FFF7EDF9C6
:10571000FAF710FE10219248FCF796F8002240217B
:105720009248FEF79AFD002280219048FEF795FDF1
:1057300000218F48FBF704FE00218C48FEF7E0FCB7
:1057400001210846FCF764FB01210220FCF760FB05
:1057500001210420FCF75CFB00214FF48020FCF7C2
:10576000A0FB00214FF40030FCF79BFB0021102030
:10577000FCF7A8FB00214FF40010FCF749FB0021C7
:105780004FF00070FCF78DFB00214FF08060FCF7BC
:1057900088FB00214FF48070FCF794FB00214FF44C
:1057A0000040FCF77EFB00214FF48050FCF78AFBA1
:1057B00000211020FCF775FB00212020FCF771FB75
:1057C00010BD10B58EB001210807FCF76AFB01205F
:1057D000FCF7ABF80DA90020FCF736FE0CA9002061
:1057E000FCF7CAFE9DF83300643006909DF8310046
:1057F000401E05909DF8320004909DF834000390FF
:105800009DF8350002909DF836000190069808B981
:10581000002403E001A80BF079FA044620460EB0FC
:1058200010BDFEB506460D4600960DBB68460BF052
:10583000BDFD044614B94FA000F0E8FA207A8DF8B7
:10584000080020798DF8090020788DF80A00207D65
:105850006438C0B28DF80700207C401CC0B28DF8BF
:105860000500207B8DF8060000208DF8040017E06D
:1058700028798DF8080068798DF80900A8798DF8E5
:105880000A002878A0F5FA60C0B28DF80700A87861
:105890008DF80500E8788DF8060000208DF80400EA
:1058A00001210807FCF7FDFA0120FCF73EF802A9E8
:1058B0000020FCF763FD01A90020FCF7F9FDFEBD07
:1058C00030B58BB004462088A0F26C700590A078AB
:1058D000401E0490E0780390207902906079019056
:1058E000A0790090208808B9002503E068460BF0F5
:1058F0000DFA054628460BB030BD10B5FCF787F809
:1059000010BD00B585B001210807FCF7CAFA0120D7
:10591000FCF70BF80120FCF718F900BF4120FCF759
:10592000CDF80028FAD04FF4807029E000680040DC
:1059300000100040001400401460002000040240E9
:105940005265736574204D45206F6E200D0A00006E
:105950005265736574204D45206F6666200D0A0000
:1059600000080240000C02400010024000480040C5
:105970002860024074696D65206572720D0A00002E
:10598000FCF7E4F90120FCF7FCF9FCF795FB43F286
:10599000F2211320FDF733F908208DF804000020D0
:1059A0008DF805008DF8060001208DF8010011200A
:1059B0008DF8020013208DF8030005208DF80000FB
:1059C0007F200390FF2004900020029002A8FCF7A3
:1059D0003AFC01A90120FCF7D1FC69460120FCF743
:1059E00067FD01218804FCF713FA0120FBF7B0FFE3
:1059F00000BF0820FCF71BF80028FAD043F2F22180
:105A00001320FDF7FCF805B000BD10B500240121FE
:105A10000807FCF746FA0120FBF787FFFFF7D1FEE6
:105A200004461320FDF7F8F843F2F221884202D130
:105A30001148844209D2FFF764FF00210E48FFF7A6
:105A4000F0FE0EA000F0E2F908E0FCF735FB4FF4A1
:105A50008040FDF7C3F910A000F0D8F910BD10B5D3
:105A600040211148FBF7F0FE10BD10B540210E4853
:105A7000FBF7E8FE10BD000080C185562A52746312
:105A80002074696D65206C6F73742C207265696E6B
:105A90006974200D0A0000005274632074696D65FA
:105AA000206B6565700D0A00000802400CB50020EF
:105AB000019000907648006840F480307449086096
:105AC00000BF7348006800F4003000900198401C4B
:105AD0000190009818B90198B0F5A04FF1D16C4829
